:1000000028C04CC04BC04AC049C0A4C347C046C06A
:1000100045C044C043C042C041C040C03FC00000D2
:10002000000036000000000037000000000038002B
:10003000020202020202020202020102040810206D
:1000400020041008010200000400000000001B054D
:10005000720511241FBECFE5D2E0DEBFCDBF20E088
:10006000A6E6B0E001C01D92A738B207E1F710E0A4
:10007000A0E6B0E0E6E5FEE002C005900D92A636EF
:10008000B107D9F710E0C8E2D0E003C02197FE0124
:10009000A3D5C732D107D1F7ECD3D1C6B1CF90E009
:1000A000FC01EC5BFF4F2491FC01E65CFF4F3491B7
:1000B000FC01E05DFF4FE491EE2321F1222399F052
:1000C000223071F028F4213071F48AB58F770AC09C
:1000D000233011F0243039F48CB58F7D8CBD03C0F2
:1000E0008AB58F7D8ABDF0E0EE0FFF1FE65DFF4F02
:1000F000A591B4918FB7F8949C91E32FE095E923F3
:10010000EC938FBF08951F93CF93DF9311E0180FE7
:1001100020917500121781F1C0917600D09177007F
:100120002150A9F08F3F49F430E040E050E06FEFFC
:100130007FEF80E090E012D50CC0812F90E0982FE7
:1001400088270197622F70E0F5D49B0102C020E060
:1001500030E0FE014091720050917300CF018C1B82
:100160009D0B8417950730F4808190E0B901D1D4BC
:100170009193F0CF10937500DF91CF911F91089567
:100180004F925F926F927F928F929F92AF92BF92A7
:10019000FF920F931F93CF93DF93DC018A019B01A2
:1001A0008091700090917100A817B90708F058C0AD
:1001B000290166247724F42C812E922EA32EBB24B1
:1001C000D82DC02F40917500442389F0E42FF0E032
:1001D000842D90E0BF019DD4F92E882D90E0BF01C1
:1001E00098D4D92F802F90E0BF0193D4C92F80914C
:1001F0007B0090917800E0917600F0917700891370
:1002000007C0CD0163E070E084D4E80FF91F17C088
:10021000AA0FBB1FAA0FBB1FEA0FFB1F032F11273B
:1002200022273327DF01A80FB11D442331F0642FAB
:1002300070E0802F90E06DD401C0902F9C9380914E
:100240007800DF01A80FB11DFC9280917900DF01D9
:10025000A80FB11DDC9380917A00E80FF11DC083D7
:10026000DF91CF911F910F91FF90BF90AF909F9022
:100270008F907F906F905F904F900895CF93DF9312
:1002800090E0FC01E65CFF4F2491FC01E05DFF4F34
:100290008491882361F190E0880F991FFC01EC5D47
:1002A000FF4FC591D491FC01E65DFF4FA591B4913C
:1002B000611109C09FB7F8948881209582238883B3
:1002C000EC912E230BC0623061F49FB7F894388113
:1002D000822F809583238883EC912E2B2C939FBFB4
:1002E00006C08FB7F894E8812E2B28838FBFDF914B
:1002F000CF9108953FB7F89480916B0090916C0076
:10030000A0916D00B0916E0022B708B601FE05C045
:100310002F3F19F00196A11DB11D3FBFBA2FA92F84
:10032000982F8827820F911DA11DB11DBC01CD0101
:1003300043E0660F771F881F991F4A95D1F70895EC
:100340000F931F93CF93DF93CDB7DEB727970FB6E9
:10035000F894DEBF0FBECDBF8091760090917700FC
:10036000892B09F48AC0C6DF00917C0010917D00C2
:1003700020917E0030917F00DC01CB01801B910B2E
:10038000A20BB30B8C329140A105B10560F3F89438
:1003900080917200909173009A838983A091760076
:1003A000B0917700FD0131968C918F831B8298B3B9
:1003B00080918200982B9E8398B3809589238D83AA
:1003C0008D818C838F8187FF02C08E818C835E81BB
:1003D0006D814F813C812B8189819A8158BB262F69
:1003E00038BB00C046FD252F68BB00C058BB362F68
:1003F00028BB00C045FD352F68BB00C058BB262F69
:1004000038BB00C044FD252F68BB00C058BB362F49
:1004100028BB00C043FD352F68BB00C058BB262F4A
:1004200038BB00C042FD252F68BB00C058BB362F2B
:1004300028BB00C041FD352F68BB00C058BB262F2C
:1004400038BB00C040FD252F68BB019758BB362F35
:1004500028BB419147FD352F68BB01F64F833C8394
:100460002B839A838983789445DF60937C00709313
:100470007D0080937E0090937F0027960FB6F894BE
:10048000DEBF0FBECDBFDF91CF911F910F910895B9
:100490008F929F92AF92BF92CF92DF92EF92FF9294
:1004A0006B017C0127DF4B015C01C114D104E10425
:1004B000F104E9F01FDFDC01CB0188199909AA09D1
:1004C000BB09883E9340A105B10578F321E0C21A2B
:1004D000D108E108F10888EE880E83E0981EA11C7F
:1004E000B11CC114D104E104F10421F7DECFFF9067
:1004F000EF90DF90CF90BF90AF909F908F90089536
:10050000CF92DF92EF92FF92CF93DF936B017C014A
:10051000C0E0D0E08091700090917100C817D907B9
:1005200060F4B701A601CE012BDE0ADF62E370E0C2
:1005300080E090E0ADDF2196EDCFDF91CF91FF908D
:10054000EF90DF90CF9008958F929F92AF92BF92DD
:10055000EF92FF920F931F93CF93DF934B015C01B8
:100560008AE0E82EF12CC0E0D0E000E010E08091BD
:100570007000909171000817190748F4B501A401A3
:10058000C8018C0F9D1FFCDD0D5F1F4FF0CFD8DE23
:1005900062E370E080E090E07BDF00E010E08091BB
:1005A0007000909171000817190750F440E050E076
:1005B000BA01C8018C0F9D1FE3DD0D5F1F4FEFCF08
:1005C0002196C330D10589F681E0E81AF10859F681
:1005D000DF91CF911F910F91FF90EF90BF90AF905F
:1005E0009F908F900895CF92DF92EF92FF920F939A
:1005F0001F93482F4095453598F4842F6DEF80D296
:10060000815090E0A0E0B0E09C0111270027842FEA
:1006100063E076D268017901C82AC701B60127C014
:100620004A3A98F49BEA940F892F6DEF69D24FEF05
:10063000480F892F63E064D250E060E070E07A01F7
:100640008B01F82AC801B70112C04A5A842F6DEFF6
:1006500057D22FEF280F842F63E052D290E0A0E012
:10066000B0E0DC0199278827BC01CD01722B1F91D6
:100670000F91FF90EF90DF90CF900895CF92DF928F
:10068000EF92FF92CF93DF936B017C01C0E0D0E04B
:100690008091700090917100C817D90730F4B701AC
:1006A000A601CE016DDD2196F3CFDF91CF91FF90B2
:1006B000EF90DF90CF9044CE0F931F93ECE3F0E0E8
:1006C0006491E2E3F0E0E491F0E0EE0FFF1FE25E00
:1006D000FF4F8591949104EF11E020E030E0462F28
:1006E00083D06115710581059105A1F0DC01CB0175
:1006F0000196A11DB11D24E0880F991FAA1FBB1FE1
:100700002A95D1F733E0B695A795979587953A95B1
:10071000D1F703C080E090E0DC01009711F488EE8F
:1007200093E08333910510F082E390E022E330E020
:10073000A901481B590BCA016AE070E0EAD1B9016E
:10074000F9D16230710510F462E070E0862F1F91DC
:100750000F91D9CC1F920F920FB60F9211242F93A5
:100760003F938F939F93AF93BF9380916700909136
:100770006800A0916900B0916A003091660026E09F
:10078000230F2D3720F40296A11DB11D05C029E8C5
:10079000230F0396A11DB11D20936600809367006F
:1007A00090936800A0936900B0936A0080916B00F9
:1007B00090916C00A0916D00B0916E000196A11D0A
:1007C000B11D80936B0090936C00A0936D00B0936B
:1007D0006E00BF91AF919F918F913F912F910F909C
:1007E0000FBE0F901F901895CF92DF92EF92FF925D
:1007F0000F931F93E82FF92F05C00150110921090C
:10080000310961F1908196239417B9F305C0015025
:1008100011092109310911F1908196239413F7CF21
:10082000C12CD12CE12CF12C0AC08FEFC81AD80AA8
:10083000E80AF80A0C151D052E053F0579F08081A0
:100840008623841791F36C2D7D2D8E2D9F2D1F9166
:100850000F91FF90EF90DF90CF90089560E070E0EF
:1008600080E090E01F910F91FF90EF90DF90CF908C
:10087000089578948AB582608ABD8AB581608ABD00
:1008800083B7826083BF83B7816083BF89B782608B
:1008900089BF80B7826080BF80B7816080BF329A95
:1008A000319A3098379A8CB580648CBD60E082E0D4
:1008B000E5DC8AE028DC8091740087FD05C061E0FA
:1008C000DDDC80917400EBDB81E080936F0038DD2C
:1008D00080E0E82E80E0F82EEFDECAE060E07FEFF7
:1008E0008FEF90E0CBDE64E670E080E090E0D0DD5A
:1008F00060E070E0CB01C2DE64E670E080E090E092
:10090000C7DDC15059F7D8DE60E070E08FEF90E0AE
:10091000F7DD64E670E080E090E0BADD60E07FEF54
:1009200080E090E0EDDD64E670E080E090E0B0DD36
:100930006FEF70E080E090E0E3DD64E670E080E07F
:1009400090E0A6DD60E070E08FEF90E0D9DD64E636
:1009500070E080E090E09CDD60E07FEF80E090E080
:10096000CFDD64E670E080E090E092DD6FEF70E054
:1009700080E090E0C5DD64E670E080E090E088DD36
:100980009BDE6FE77FE78FE790E0DEDD60E070E001
:100990008FE790E0D9DD6FE770E080E090E0D4DD94
:1009A0008BDE00E010E0C0E0D0E08091700090911C
:1009B0007100C817D90748F48C2F800F14DEAB01E3
:1009C000BC01CE01DDDB2196F0CFBADC64E170E042
:1009D00080E090E05DDD0F5F1F4F011581E018079B
:1009E00011F76ADE00E010E0C0E0D0E06091700036
:1009F00070917100C617D70760F49C2F80E09AD0E1
:100A0000862F800FF0DDAB01BC01CE01B9DB219652
:100A1000EDCF96DC64E170E080E090E039DD0F5FBF
:100A20001F4F011585E01807F9F6E114F10409F4E8
:100A300053CFE6DA51CF10926F00109275001092EA
:100A40007C0010927D0010927E0010927F0081E069
:100A500080937B00809378001092790082E08093ED
:100A60007A0085E190E09093730080937200BAD091
:100A70009093770080937600009761F025E1FC0168
:100A800011922A95E9F787E090E0909371008093A6
:100A9000700008C0109273001092720010927100E2
:100AA0001092700081E08093740080916F00882321
:100AB00029F061E081E0E2DB81E0F1DAE1E3F0E0FE
:100AC000E491F0E0EE0FFF1FE65DFF4F85919491FA
:100AD0009093810080938000EBE3F0E0E491E09359
:100AE000820008958091760090917700009709F038
:100AF0000ED18091740087FD02C060E0BFCB0895E5
:100B0000002480FD060E660F11F08695D1F7802D2A
:100B100008950024552704C0080E591F880F991FF7
:100B2000009729F076956795B8F37105B9F7802D90
:100B3000952F0895AA1BBB1B51E107C0AA1FBB1F1D
:100B4000A617B70710F0A61BB70B881F991F5A9559
:100B5000A9F780959095BC01CD010895052E97FBCE
:100B600016F400940FD057FD05D014D007FC02D026
:100B700046F408C050954095309521953F4F4F4F12
:100B80005F4F089590958095709561957F4F8F4F39
:100B90009F4F0895A1E21A2EAA1BBB1BFD010DC099
:100BA000AA1FBB1FEE1FFF1FA217B307E407F5071D
:100BB00020F0A21BB30BE40BF50B661F771F881FF9
:100BC000991F1A9469F760957095809590959B018F
:100BD000AC01BD01CF010895EE0FFF1F0590F49108
:100BE000E02D0994CF93DF938230910510F482E0D9
:100BF00090E0E0918500F091860020E030E0C0E0D8
:100C0000D0E0309711F14081518148175907C0F069
:100C10004817590761F482819381209719F09B83CB
:100C20008A832BC0909386008093850026C021156F
:100C3000310519F04217530718F49A01BE01DF017C
:100C4000EF010280F381E02DDCCF2115310509F1A0
:100C5000281B390B2430310590F412968D919C910C
:100C600013976115710521F0FB019383828304C002
:100C70009093860080938500FD01329644C0FD016B
:100C8000E20FF31F81939193225031092D933C93EE
:100C90003AC02091830030918400232B41F42091AD
:100CA0006200309163003093840020938300209190
:100CB0006000309161002115310541F42DB73EB738
:100CC0004091640050916500241B350BE091830036
:100CD000F0918400E217F307A0F42E1B3F0B2817B6
:100CE000390778F0AC014E5F5F4F2417350748F0A5
:100CF0004E0F5F1F50938400409383008193919324
:100D000002C0E0E0F0E0CF01DF91CF9108950F93B2
:100D10001F93CF93DF93009709F48CC0FC013297A7
:100D20001382128200918500109186000115110531
:100D300081F420813181820F931F209183003091B3
:100D400084002817390779F5F0938400E093830035
:100D500071C0D80140E050E0AE17BF0750F41296C2
:100D60002D913C911397AD012115310509F1D90160
:100D7000F3CF9D01DA013383228360817181860F75
:100D8000971F8217930769F4EC0128813981260F98
:100D9000371F2E5F3F4F318320838A819B8193834E
:100DA0008283452B29F4F0938600E093850042C0AE
:100DB0001396FC93EE931297ED01499159919E0180
:100DC000240F351FE217F30771F480819181840F9E
:100DD000951F029611969C938E9382819381139610
:100DE0009C938E931297E0E0F0E0D80112968D91DB
:100DF0009C911397009719F0F8018C01F6CF8D9113
:100E00009C9198012E5F3F4F820F931F209183008A
:100E1000309184002817390769F4309729F410922B
:100E200086001092850002C0138212821093840003
:100E300000938300DF91CF911F910F91089510E0EF
:100E4000C8E2D0E003C0FE01C7DE2196C932D10757
:060E5000D1F7F894FFCF7A
:060E56000000870080008F
:00000001FF
